{
  "contractName": "CertificateVerify",
  "abi": [
    {
      "constant": true,
      "inputs": [
        {
          "name": "",
          "type": "address"
        }
      ],
      "name": "studentCertificates",
      "outputs": [
        {
          "name": "studentId",
          "type": "uint256"
        },
        {
          "name": "studentName",
          "type": "string"
        },
        {
          "name": "dateOfIssuance",
          "type": "uint256"
        },
        {
          "name": "courseTitle",
          "type": "string"
        },
        {
          "name": "instituteSignature",
          "type": "string"
        }
      ],
      "payable": false,
      "stateMutability": "view",
      "type": "function",
      "signature": "0xa3daddc5"
    },
    {
      "anonymous": false,
      "inputs": [
        {
          "indexed": true,
          "name": "studentAddress",
          "type": "address"
        },
        {
          "indexed": false,
          "name": "dateOfIssuance",
          "type": "uint256"
        }
      ],
      "name": "CertificateIssued",
      "type": "event",
      "signature": "0xfec61b9ec0e29047dbeea981617649d79f187d172cfd492695a3d0bfee28883e"
    },
    {
      "constant": false,
      "inputs": [
        {
          "name": "_studentId",
          "type": "uint256"
        },
        {
          "name": "_studentName",
          "type": "string"
        },
        {
          "name": "_courseTitle",
          "type": "string"
        },
        {
          "name": "_instituteSignature",
          "type": "string"
        }
      ],
      "name": "issueCertificate",
      "outputs": [],
      "payable": false,
      "stateMutability": "nonpayable",
      "type": "function",
      "signature": "0x7cd44c23"
    }
  ],
  "bytecode": "0x608060405234801561001057600080fd5b506107cc806100206000396000f3fe60806040526004361061004b5763ffffffff7c01000000000000000000000000000000000000000000000000000000006000350416637cd44c238114610050578063a3daddc51461021a575b600080fd5b34801561005c57600080fd5b506102186004803603608081101561007357600080fd5b8135919081019060408101602082013564010000000081111561009557600080fd5b8201836020820111156100a757600080fd5b803590602001918460018302840111640100000000831117156100c957600080fd5b91908080601f016020809104026020016040519081016040528093929190818152602001838380828437600092019190915250929594936020810193503591505064010000000081111561011c57600080fd5b82018360208201111561012e57600080fd5b8035906020019184600183028401116401000000008311171561015057600080fd5b91908080601f01602080910402602001604051908101604052809392919081815260200183838082843760009201919091525092959493602081019350359150506401000000008111156101a357600080fd5b8201836020820111156101b557600080fd5b803590602001918460018302840111640100000000831117156101d757600080fd5b91908080601f0160208091040260200160405190810160405280939291908181526020018383808284376000920191909152509295506103ac945050505050565b005b34801561022657600080fd5b5061025a6004803603602081101561023d57600080fd5b503573ffffffffffffffffffffffffffffffffffffffff16610509565b60405180868152602001806020018581526020018060200180602001848103845288818151815260200191508051906020019080838360005b838110156102ab578181015183820152602001610293565b50505050905090810190601f1680156102d85780820380516001836020036101000a031916815260200191505b50848103835286518152865160209182019188019080838360005b8381101561030b5781810151838201526020016102f3565b50505050905090810190601f1680156103385780820380516001836020036101000a031916815260200191505b50848103825285518152855160209182019187019080838360005b8381101561036b578181015183820152602001610353565b50505050905090810190601f1680156103985780820380516001836020036101000a031916815260200191505b509850505050505050505060405180910390f35b336000908152602081905260409020600201541561042b57604080517f08c379a000000000000000000000000000000000000000000000000000000000815260206004820152601a60248201527f436572746966696361746520616c726561647920697373756564000000000000604482015290519081900360640190fd5b6104336106d5565b506040805160a081018252858152602080820186815242838501526060830186905260808301859052336000908152808352939093208251815592518051929384939092610488926001850192910190610705565b5060408201516002820155606082015180516104ae916003840191602090910190610705565b50608082015180516104ca916004840191602090910190610705565b50506040805142815290513392507ffec61b9ec0e29047dbeea981617649d79f187d172cfd492695a3d0bfee28883e9181900360200190a25050505050565b600060208181529181526040908190208054600180830180548551600293821615610100026000190190911692909204601f81018790048702830187019095528482529194929390928301828280156105a35780601f10610578576101008083540402835291602001916105a3565b820191906000526020600020905b81548152906001019060200180831161058657829003601f168201915b505050506002838101546003850180546040805160206001841615610100026000190190931695909504601f81018390048302860183019091528085529596929592945090919083018282801561063b5780601f106106105761010080835404028352916020019161063b565b820191906000526020600020905b81548152906001019060200180831161061e57829003601f168201915b5050505060048301805460408051602060026001851615610100026000190190941693909304601f81018490048402820184019092528181529495949350908301828280156106cb5780601f106106a0576101008083540402835291602001916106cb565b820191906000526020600020905b8154815290600101906020018083116106ae57829003601f168201915b5050505050905085565b60a06040519081016040528060008152602001606081526020016000815260200160608152602001606081525090565b828054600181600116156101000203166002900490600052602060002090601f016020900481019282601f1061074657805160ff1916838001178555610773565b82800160010185558215610773579182015b82811115610773578251825591602001919060010190610758565b5061077f929150610783565b5090565b61079d91905b8082111561077f5760008155600101610789565b9056fea165627a7a7230582097f700f4de8f6b3feae4908987b589772c0570939892985a92948b72862babf90029",
  "source": "// SPDX-License-Identifier: MIT\r\npragma solidity >=0.4.21 <0.6.0;\r\n\r\ncontract CertificateVerify {\r\n    // Struct to represent a student certificate\r\n    struct Certificate {\r\n        uint256 studentId;\r\n        string studentName;\r\n        uint256 dateOfIssuance;\r\n        string courseTitle;\r\n        string instituteSignature;\r\n    }\r\n\r\n    // Mapping from student address to their certificate\r\n    mapping(address => Certificate) public studentCertificates;\r\n\r\n    // Event emitted when a new certificate is issued\r\n    event CertificateIssued(address indexed studentAddress, uint256 dateOfIssuance);\r\n\r\n    // Function to issue a new certificate\r\n    function issueCertificate(\r\n        uint256 _studentId,\r\n        string memory _studentName,\r\n        string memory _courseTitle,\r\n        string memory _instituteSignature\r\n    ) public {\r\n        // Ensure the student does not already have a certificate\r\n        require(studentCertificates[msg.sender].dateOfIssuance == 0, \"Certificate already issued\");\r\n\r\n        // Create a new certificate\r\n        Certificate memory newCertificate = Certificate({\r\n            studentId: _studentId,\r\n            studentName: _studentName,\r\n            dateOfIssuance: block.timestamp,\r\n            courseTitle: _courseTitle,\r\n            instituteSignature: _instituteSignature\r\n        });\r\n\r\n        // Store the certificate for the student\r\n        studentCertificates[msg.sender] = newCertificate;\r\n\r\n        // Emit an event indicating that a new certificate has been issued\r\n        emit CertificateIssued(msg.sender, block.timestamp);\r\n    }\r\n}\r\n",
  "sourcePath": "C:/Users/eriga/OneDrive/Desktop/Project/contracts/CertificateVerify.sol",
  "compiler": {
    "name": "solc",
    "version": "0.5.0+commit.1d4f565a.Emscripten.clang"
  },
  "schemaVersion": "3.0.1",
  "updatedAt": "2023-11-09T23:50:01.053Z",
  "devdoc": {
    "methods": {}
  },
  "userdoc": {
    "methods": {}
  }
}